{
 "cells": [
  {
   "cell_type": "markdown",
   "metadata": {},
   "source": [
    "# Ethereum transaction OpenSSL signing\n",
    "\n",
    "Create, sign and send ethereum transaction by the hard way\n",
    "\n",
    "**ToDo:** use own dir for temp files or make all subprocess operations without generatin files in project folder"
   ]
  },
  {
   "cell_type": "markdown",
   "metadata": {},
   "source": [
    "## 1 Imports, Web3 connection\n",
    "Now connect to Ethereum provider via web3 RPC"
   ]
  },
  {
   "cell_type": "code",
   "execution_count": 1,
   "metadata": {},
   "outputs": [],
   "source": [
    "import subprocess\n",
    "from web3 import Web3\n",
    "\n",
    "from eth_account._utils.transactions import (\n",
    "    encode_transaction,\n",
    "    serializable_unsigned_transaction_from_dict,\n",
    ")\n",
    "\n",
    "from eth_keys import (\n",
    "    keys,\n",
    ")\n",
    "\n",
    "from eth_keys.datatypes import (  \n",
    "    PublicKey,\n",
    ")\n",
    "\n",
    "from eth_keys.backends.native.ecdsa import (\n",
    "    ecdsa_raw_verify,\n",
    "    ecdsa_raw_recover,\n",
    "    decode_public_key,\n",
    "    private_key_to_public_key,\n",
    ")"
   ]
  },
  {
   "cell_type": "code",
   "execution_count": 2,
   "metadata": {},
   "outputs": [],
   "source": [
    "w3 = Web3(Web3.HTTPProvider('http://127.0.0.1:8545'))\n",
    "CHAIN_ID = 1"
   ]
  },
  {
   "cell_type": "markdown",
   "metadata": {},
   "source": [
    "## 2.1 Generate private key via OpenSSL (optional)"
   ]
  },
  {
   "cell_type": "code",
   "execution_count": 3,
   "metadata": {
    "scrolled": true
   },
   "outputs": [
    {
     "name": "stdout",
     "output_type": "stream",
     "text": [
      "-----BEGIN EC PRIVATE KEY-----\n",
      "MHQCAQEEIPX0XyQMU+HK8+yKzd4rpvt01r5GifuwyQHmNId7qDt5oAcGBSuBBAAK\n",
      "oUQDQgAEP3i3kf3dJnM6RL87N7egr0+jv7fzQkbT35RGQWQ+w1NOO7FTjmSGTPqV\n",
      "cOHNBAhgzVAaAInXduX2koFpOrZwqQ==\n",
      "-----END EC PRIVATE KEY-----\n"
     ]
    }
   ],
   "source": [
    "subprocess.run('openssl ecparam -name secp256k1 -genkey -noout -out private_key.pem', shell=True).returncode\n",
    "with open('private_key.pem') as f:\n",
    "    for line in f:\n",
    "        print(line, end='')"
   ]
  },
  {
   "cell_type": "code",
   "execution_count": 4,
   "metadata": {
    "scrolled": false
   },
   "outputs": [
    {
     "name": "stdout",
     "output_type": "stream",
     "text": [
      "Private-Key: (256 bit)\n",
      "priv:\n",
      "    f5:f4:5f:24:0c:53:e1:ca:f3:ec:8a:cd:de:2b:a6:\n",
      "    fb:74:d6:be:46:89:fb:b0:c9:01:e6:34:87:7b:a8:\n",
      "    3b:79\n",
      "pub:\n",
      "    04:3f:78:b7:91:fd:dd:26:73:3a:44:bf:3b:37:b7:\n",
      "    a0:af:4f:a3:bf:b7:f3:42:46:d3:df:94:46:41:64:\n",
      "    3e:c3:53:4e:3b:b1:53:8e:64:86:4c:fa:95:70:e1:\n",
      "    cd:04:08:60:cd:50:1a:00:89:d7:76:e5:f6:92:81:\n",
      "    69:3a:b6:70:a9\n",
      "ASN1 OID: secp256k1\n",
      "\n"
     ]
    }
   ],
   "source": [
    "raw_output = subprocess.run('openssl ec -in private_key.pem -text -noout', shell=True, capture_output=True).stdout.decode()\n",
    "print(raw_output)"
   ]
  },
  {
   "cell_type": "code",
   "execution_count": 5,
   "metadata": {},
   "outputs": [
    {
     "name": "stdout",
     "output_type": "stream",
     "text": [
      "priv: f5f45f240c53e1caf3ec8acdde2ba6fb74d6be4689fbb0c901e634877ba83b79\n",
      "pub: 043f78b791fddd26733a44bf3b37b7a0af4fa3bfb7f34246d3df944641643ec3534e3bb1538e64864cfa9570e1cd040860cd501a0089d776e5f69281693ab670a9\n"
     ]
    }
   ],
   "source": [
    "private_key_hexstr = ''.join([x.replace(' ','').replace(':','') for x in raw_output.split('\\n')[2:5]])\n",
    "print('priv: ' + private_key_hexstr)\n",
    "public_key_hexstr = ''.join([x.replace(' ','').replace(':','') for x in raw_output.split('\\n')[6:11]])\n",
    "print('pub: ' + public_key_hexstr)"
   ]
  },
  {
   "cell_type": "markdown",
   "metadata": {},
   "source": [
    "## 2.2 Import raw private key (e.g. from ganache) and create locally its .pem file\n",
    "It should be in hex format without `0x` prefix"
   ]
  },
  {
   "cell_type": "code",
   "execution_count": 6,
   "metadata": {},
   "outputs": [
    {
     "data": {
      "text/plain": [
       "0"
      ]
     },
     "execution_count": 6,
     "metadata": {},
     "output_type": "execute_result"
    }
   ],
   "source": [
    "# this adress is 0 account from ganache\n",
    "private_key_hexstr = '44d01ff7ab5e778dac355876d5200b1f0d4f8d9bbd0f15723e7683f9c6ee8a78'\n",
    "\n",
    "public_key_hexstr = '04' + Web3.toHex(private_key_to_public_key(Web3.toBytes(hexstr=private_key_hexstr)))[2:]\n",
    "subprocess.run(f'echo 30740201010420 {private_key_hexstr} a00706052b8104000aa144034200 {public_key_hexstr} | xxd -r -p > raw_pem_key', shell=True).returncode\n",
    "subprocess.run('openssl ec -inform d < raw_pem_key > private_key.pem', shell=True).returncode"
   ]
  },
  {
   "cell_type": "markdown",
   "metadata": {},
   "source": [
    "## 3 Create ethereum transaction dict"
   ]
  },
  {
   "cell_type": "code",
   "execution_count": 7,
   "metadata": {},
   "outputs": [
    {
     "data": {
      "text/plain": [
       "'0x90C08087aF274b77516Df05952273008FEA2c4b9'"
      ]
     },
     "execution_count": 7,
     "metadata": {},
     "output_type": "execute_result"
    }
   ],
   "source": [
    "address = PublicKey(private_key_to_public_key(Web3.toBytes(hexstr=private_key_hexstr))).to_address()\n",
    "w3.eth.defaultAccount = Web3.toChecksumAddress(address)\n",
    "w3.eth.defaultAccount"
   ]
  },
  {
   "cell_type": "code",
   "execution_count": 8,
   "metadata": {},
   "outputs": [
    {
     "data": {
      "text/plain": [
       "21"
      ]
     },
     "execution_count": 8,
     "metadata": {},
     "output_type": "execute_result"
    }
   ],
   "source": [
    "# w3.eth.defaultAccount = w3.eth.accounts[0]\n",
    "\n",
    "nonce = w3.eth.getTransactionCount(w3.eth.defaultAccount)\n",
    "transaction_dict = {\n",
    "    #'from': w3.eth.accounts[0],\n",
    "    'to': Web3.toChecksumAddress(w3.eth.accounts[1]),\n",
    "    'value': 1,\n",
    "    'gas': 200000,\n",
    "    'gasPrice': 0, # Web3.toWei(1, 'gwei'),\n",
    "    'nonce': nonce,\n",
    "    'chainId': CHAIN_ID\n",
    "}\n",
    "\n",
    "nonce"
   ]
  },
  {
   "cell_type": "markdown",
   "metadata": {},
   "source": [
    "## 4 Transaction dict RLP serialize and get Keccak256 hash"
   ]
  },
  {
   "cell_type": "markdown",
   "metadata": {},
   "source": [
    "Prepare to serialize transaction dict (create abstract web3py transaction object), then RLP encode transaction and get keccak hash. "
   ]
  },
  {
   "cell_type": "code",
   "execution_count": 9,
   "metadata": {},
   "outputs": [
    {
     "data": {
      "text/plain": [
       "'0xdcf680f0bfb7b1d0d76cde05393b07d39f63f912060b131f501ca8b2a912da1d'"
      ]
     },
     "execution_count": 9,
     "metadata": {},
     "output_type": "execute_result"
    }
   ],
   "source": [
    "unsigned_tx = serializable_unsigned_transaction_from_dict(transaction_dict)\n",
    "unsigned_tx_keccak_hash = unsigned_tx.hash()\n",
    "Web3.toHex(unsigned_tx_keccak_hash)"
   ]
  },
  {
   "cell_type": "markdown",
   "metadata": {},
   "source": [
    "## 5.1 Sign transaction dict via web3.py (optional)"
   ]
  },
  {
   "cell_type": "code",
   "execution_count": 10,
   "metadata": {},
   "outputs": [
    {
     "name": "stdout",
     "output_type": "stream",
     "text": [
      "signed tx hex:\n",
      "0xf860158083030d4094bab021f651b216ae46f3f73f75df3c5cb91b631b018026a0adb79d12b2cf1167ff794a64d02e12ce14f4d095937b36275853dcf215ab2ea1a0415ea2c485348ce056e4ee191b1845ad5411df84b6adadf9d12cfe187f4adb6a\n",
      "\n",
      "signed tx hash hex:\n",
      "0xcecc0f464701b3bb80c6eb336a48f439ef7467d157b3d16a35e2f6a4eb05cec9\n",
      "\n",
      "tx ecdsa signature, (v, r, s):\n",
      "0x26\n",
      "0xadb79d12b2cf1167ff794a64d02e12ce14f4d095937b36275853dcf215ab2ea1\n",
      "0x415ea2c485348ce056e4ee191b1845ad5411df84b6adadf9d12cfe187f4adb6a\n"
     ]
    }
   ],
   "source": [
    "signed_tx = w3.eth.account.signTransaction(transaction_dict, private_key_hexstr)\n",
    "print('signed tx hex:\\n' + w3.toHex(signed_tx.rawTransaction) + '\\n')\n",
    "print('signed tx hash hex:\\n' + w3.toHex(signed_tx.hash) + '\\n')\n",
    "print('tx ecdsa signature, (v, r, s):')\n",
    "print(w3.toHex(signed_tx.v))\n",
    "print(w3.toHex(signed_tx.r))\n",
    "print(w3.toHex(signed_tx.s))"
   ]
  },
  {
   "cell_type": "markdown",
   "metadata": {},
   "source": [
    "## 5.2 Sign transaction via ecdsa_signer (STM32 using wolfSSL)"
   ]
  },
  {
   "cell_type": "markdown",
   "metadata": {},
   "source": [
    "ToDo: finalize communicating via serial port"
   ]
  },
  {
   "cell_type": "code",
   "execution_count": 11,
   "metadata": {},
   "outputs": [
    {
     "name": "stdout",
     "output_type": "stream",
     "text": [
      "/dev/ttyACM0\n"
     ]
    }
   ],
   "source": [
    "import serial\n",
    "\n",
    "ecdsa_signer = serial.Serial('/dev/ttyACM0')  # open serial port\n",
    "ecdsa_signer.timeout = 5\n",
    "ecdsa_signer.stopbits = 2\n",
    "print(ecdsa_signer.name) # check connection"
   ]
  },
  {
   "cell_type": "markdown",
   "metadata": {},
   "source": [
    "Import private key to STM32:"
   ]
  },
  {
   "cell_type": "code",
   "execution_count": 12,
   "metadata": {},
   "outputs": [
    {
     "name": "stdout",
     "output_type": "stream",
     "text": [
      "b'OKAYPKID'\n"
     ]
    }
   ],
   "source": [
    "command = b'IMPK' + bytes.fromhex(private_key_hexstr)\n",
    "ecdsa_signer.write(command)\n",
    "line = ecdsa_signer.read_until(size=8)\n",
    "print(line)"
   ]
  },
  {
   "cell_type": "markdown",
   "metadata": {},
   "source": [
    "Sign transaction hash via STM32:"
   ]
  },
  {
   "cell_type": "code",
   "execution_count": 13,
   "metadata": {},
   "outputs": [
    {
     "data": {
      "text/plain": [
       "[b'SGRS',\n",
       " 'c4f598bc6e9cea9becea23e60448e9c7c3201a4623e280d9c04b7060104665bc',\n",
       " '489708b733d1dceb51c1d64644aaad39cd709b31f729988f29cfdb977bd06ffc']"
      ]
     },
     "execution_count": 13,
     "metadata": {},
     "output_type": "execute_result"
    }
   ],
   "source": [
    "command = b'SGHS' + bytes.fromhex(Web3.toHex(unsigned_tx_keccak_hash)[2:])\n",
    "ecdsa_signer.write(command)\n",
    "feedback_msg = ecdsa_signer.read_until(size=4)\n",
    "\n",
    "r_str = ecdsa_signer.read_until(size=32).hex()\n",
    "s_str = ecdsa_signer.read_until(size=32).hex()\n",
    "\n",
    "[feedback_msg, r_str, s_str]"
   ]
  },
  {
   "cell_type": "code",
   "execution_count": null,
   "metadata": {},
   "outputs": [],
   "source": [
    "ecdsa_signer.readline()"
   ]
  },
  {
   "cell_type": "code",
   "execution_count": null,
   "metadata": {},
   "outputs": [],
   "source": [
    "ecdsa_signer.close()"
   ]
  },
  {
   "cell_type": "markdown",
   "metadata": {},
   "source": [
    "## 5.3 Sign transaction via OpenSSL"
   ]
  },
  {
   "cell_type": "markdown",
   "metadata": {},
   "source": [
    "keccak hash should be used in openssl sign.\n",
    "```bash\n",
    "echo <keccak_hash> | xxd -r -p > keccak_hash_file\n",
    "```"
   ]
  },
  {
   "cell_type": "code",
   "execution_count": null,
   "metadata": {},
   "outputs": [],
   "source": [
    "subprocess.run(f'echo {Web3.toHex(unsigned_tx_keccak_hash)[2:]} | xxd -r -p > unsigned_tx_keccak_hash', shell=True).returncode"
   ]
  },
  {
   "cell_type": "markdown",
   "metadata": {},
   "source": [
    "* **s** must be less than ```secp256k1n / 2 + 1```\n",
    "* raw recovery ID (**v**) (0/1) role description: value 0 represents an even **y** value of elliptic curve signature, 1 is odd\n",
    "\n",
    "> it's not possible to get y from openssl, but this value can be only in [0,1]"
   ]
  },
  {
   "cell_type": "code",
   "execution_count": null,
   "metadata": {},
   "outputs": [],
   "source": [
    "secp256k1n = 115792089237316195423570985008687907852837564279074904382605163141518161494337\n",
    "s_num = secp256k1n\n",
    "while s_num > secp256k1n / 2:\n",
    "    subprocess.run('openssl pkeyutl -sign -inkey private_key.pem -in unsigned_tx_keccak_hash > signature', shell=True)\n",
    "    raw_output = subprocess.run('openssl asn1parse -inform DER -in signature', shell=True, capture_output=True).stdout.decode()\n",
    "    r_str, s_str = [x.split(':')[-1] for x in raw_output.split('\\n')[1:3]]\n",
    "    s_num = int(s_str, 16)\n",
    "print(r_str)\n",
    "print(s_str)"
   ]
  },
  {
   "cell_type": "markdown",
   "metadata": {},
   "source": [
    "## 6 Check signature"
   ]
  },
  {
   "cell_type": "markdown",
   "metadata": {},
   "source": [
    "Check if signature is valid:"
   ]
  },
  {
   "cell_type": "code",
   "execution_count": 14,
   "metadata": {},
   "outputs": [
    {
     "data": {
      "text/plain": [
       "True"
      ]
     },
     "execution_count": 14,
     "metadata": {},
     "output_type": "execute_result"
    }
   ],
   "source": [
    "ecdsa_raw_verify(\n",
    "    Web3.toBytes(unsigned_tx_keccak_hash),\n",
    "    [int(r_str, 16), int(s_str, 16)],\n",
    "    private_key_to_public_key(Web3.toBytes(hexstr=private_key_hexstr))\n",
    ")"
   ]
  },
  {
   "cell_type": "markdown",
   "metadata": {},
   "source": [
    "It must return your ethereum address:\n",
    "> if address does not match, try to change raw recovery ID (0,1)"
   ]
  },
  {
   "cell_type": "code",
   "execution_count": 15,
   "metadata": {},
   "outputs": [
    {
     "data": {
      "text/plain": [
       "'0x90c08087af274b77516df05952273008fea2c4b9'"
      ]
     },
     "execution_count": 15,
     "metadata": {},
     "output_type": "execute_result"
    }
   ],
   "source": [
    "v_raw = 0\n",
    "\n",
    "PublicKey(ecdsa_raw_recover(\n",
    "    Web3.toBytes(unsigned_tx_keccak_hash),\n",
    "    [v_raw, int(r_str, 16), int(s_str, 16)],\n",
    ")).to_address()"
   ]
  },
  {
   "cell_type": "markdown",
   "metadata": {},
   "source": [
    "RLP encode signed transaction, it's final step before you can send it"
   ]
  },
  {
   "cell_type": "code",
   "execution_count": 16,
   "metadata": {},
   "outputs": [
    {
     "data": {
      "text/plain": [
       "'0xf860158083030d4094bab021f651b216ae46f3f73f75df3c5cb91b631b018025a0c4f598bc6e9cea9becea23e60448e9c7c3201a4623e280d9c04b7060104665bca0489708b733d1dceb51c1d64644aaad39cd709b31f729988f29cfdb977bd06ffc'"
      ]
     },
     "execution_count": 16,
     "metadata": {},
     "output_type": "execute_result"
    }
   ],
   "source": [
    "CHAIN_ID_OFFSET = 35\n",
    "v = v_raw + CHAIN_ID_OFFSET + 2 * CHAIN_ID # it's from yellow paper\n",
    "\n",
    "signed_tx = encode_transaction(\n",
    "    unsigned_tx,\n",
    "    vrs=(v,\n",
    "         int(r_str, 16),\n",
    "         int(s_str, 16)\n",
    "    )\n",
    ")\n",
    "Web3.toHex(signed_tx)"
   ]
  },
  {
   "cell_type": "markdown",
   "metadata": {},
   "source": [
    "## 7 Send signed transaction "
   ]
  },
  {
   "cell_type": "code",
   "execution_count": 17,
   "metadata": {
    "scrolled": false
   },
   "outputs": [
    {
     "data": {
      "text/plain": [
       "HexBytes('0x3cdc649d48dd4a55c210d9f10b02239e8ae89df528939b435f09485cfae1969e')"
      ]
     },
     "execution_count": 17,
     "metadata": {},
     "output_type": "execute_result"
    }
   ],
   "source": [
    "tx_hash = w3.eth.sendRawTransaction(signed_tx)\n",
    "tx_hash"
   ]
  },
  {
   "cell_type": "code",
   "execution_count": 18,
   "metadata": {},
   "outputs": [
    {
     "data": {
      "text/plain": [
       "AttributeDict({'transactionHash': HexBytes('0x3cdc649d48dd4a55c210d9f10b02239e8ae89df528939b435f09485cfae1969e'),\n",
       " 'transactionIndex': 0,\n",
       " 'blockHash': HexBytes('0x7a9e1f29912b786d3514eafb51612802e27a6a3ad27097f9f761fc0f12eb5382'),\n",
       " 'blockNumber': 22,\n",
       " 'from': '0x90c08087af274b77516df05952273008fea2c4b9',\n",
       " 'to': '0xbab021f651b216ae46f3f73f75df3c5cb91b631b',\n",
       " 'gasUsed': 21000,\n",
       " 'cumulativeGasUsed': 21000,\n",
       " 'contractAddress': None,\n",
       " 'logs': [],\n",
       " 'status': 1,\n",
       " 'logsBloom': HexBytes('0x00000000000000000000000000000000000000000000000000000000000000000000000000000000000000000000000000000000000000000000000000000000000000000000000000000000000000000000000000000000000000000000000000000000000000000000000000000000000000000000000000000000000000000000000000000000000000000000000000000000000000000000000000000000000000000000000000000000000000000000000000000000000000000000000000000000000000000000000000000000000000000000000000000000000000000000000000000000000000000000000000000000000000000000000000000000'),\n",
       " 'v': '0x25',\n",
       " 'r': '0xc4f598bc6e9cea9becea23e60448e9c7c3201a4623e280d9c04b7060104665bc',\n",
       " 's': '0x489708b733d1dceb51c1d64644aaad39cd709b31f729988f29cfdb977bd06ffc'})"
      ]
     },
     "execution_count": 18,
     "metadata": {},
     "output_type": "execute_result"
    }
   ],
   "source": [
    "w3.eth.getTransactionReceipt(tx_hash)"
   ]
  },
  {
   "cell_type": "code",
   "execution_count": null,
   "metadata": {},
   "outputs": [],
   "source": []
  }
 ],
 "metadata": {
  "kernelspec": {
   "display_name": "Python 3",
   "language": "python",
   "name": "python3"
  },
  "language_info": {
   "codemirror_mode": {
    "name": "ipython",
    "version": 3
   },
   "file_extension": ".py",
   "mimetype": "text/x-python",
   "name": "python",
   "nbconvert_exporter": "python",
   "pygments_lexer": "ipython3",
   "version": "3.7.3"
  }
 },
 "nbformat": 4,
 "nbformat_minor": 2
}
