{
 "cells": [
  {
   "cell_type": "markdown",
   "metadata": {},
   "source": [
    "# Ethereum transaction OpenSSL signing\n",
    "\n",
    "Create, sign and send ethereum transaction by the hard way\n",
    "\n",
    "**ToDo:** use own dir for temp files or make all subprocess operations without generatin files in project folder"
   ]
  },
  {
   "cell_type": "markdown",
   "metadata": {},
   "source": [
    "## 1 Imports, Web3 connection\n",
    "Now connect to Ethereum provider via web3 RPC"
   ]
  },
  {
   "cell_type": "code",
   "execution_count": 1,
   "metadata": {},
   "outputs": [],
   "source": [
    "import subprocess\n",
    "from web3 import Web3\n",
    "\n",
    "from eth_account._utils.transactions import (\n",
    "    encode_transaction,\n",
    "    serializable_unsigned_transaction_from_dict,\n",
    ")\n",
    "\n",
    "from eth_keys import (\n",
    "    keys,\n",
    ")\n",
    "\n",
    "from eth_keys.datatypes import (  \n",
    "    PublicKey,\n",
    ")\n",
    "\n",
    "from eth_keys.backends.native.ecdsa import (\n",
    "    ecdsa_raw_verify,\n",
    "    ecdsa_raw_recover,\n",
    "    decode_public_key,\n",
    "    private_key_to_public_key,\n",
    ")"
   ]
  },
  {
   "cell_type": "code",
   "execution_count": 2,
   "metadata": {},
   "outputs": [],
   "source": [
    "w3 = Web3(Web3.HTTPProvider('http://127.0.0.1:8545'))\n",
    "CHAIN_ID = 1"
   ]
  },
  {
   "cell_type": "markdown",
   "metadata": {},
   "source": [
    "## 2.1 Generate private key via OpenSSL (optional)"
   ]
  },
  {
   "cell_type": "code",
   "execution_count": 3,
   "metadata": {
    "scrolled": true
   },
   "outputs": [
    {
     "name": "stdout",
     "output_type": "stream",
     "text": [
      "-----BEGIN EC PRIVATE KEY-----\n",
      "MHQCAQEEIPZEFyv6zf1QhTUuSp+1zVuOpub5vC8Giaj170WK/EbYoAcGBSuBBAAK\n",
      "oUQDQgAEY4qgXBJJ9T9Xo1N4gdbIA8SO2J5MI9XFKGuIhlErcdEPy5707eLCBryf\n",
      "EP+GC8ZiVYDlJRSKo6agKau6YQuQjA==\n",
      "-----END EC PRIVATE KEY-----\n"
     ]
    }
   ],
   "source": [
    "subprocess.run('openssl ecparam -name secp256k1 -genkey -noout -out private_key.pem', shell=True).returncode\n",
    "with open('private_key.pem') as f:\n",
    "    for line in f:\n",
    "        print(line, end='')"
   ]
  },
  {
   "cell_type": "code",
   "execution_count": 4,
   "metadata": {
    "scrolled": false
   },
   "outputs": [
    {
     "name": "stdout",
     "output_type": "stream",
     "text": [
      "Private-Key: (256 bit)\n",
      "priv:\n",
      "    f6:44:17:2b:fa:cd:fd:50:85:35:2e:4a:9f:b5:cd:\n",
      "    5b:8e:a6:e6:f9:bc:2f:06:89:a8:f5:ef:45:8a:fc:\n",
      "    46:d8\n",
      "pub:\n",
      "    04:63:8a:a0:5c:12:49:f5:3f:57:a3:53:78:81:d6:\n",
      "    c8:03:c4:8e:d8:9e:4c:23:d5:c5:28:6b:88:86:51:\n",
      "    2b:71:d1:0f:cb:9e:f4:ed:e2:c2:06:bc:9f:10:ff:\n",
      "    86:0b:c6:62:55:80:e5:25:14:8a:a3:a6:a0:29:ab:\n",
      "    ba:61:0b:90:8c\n",
      "ASN1 OID: secp256k1\n",
      "\n"
     ]
    }
   ],
   "source": [
    "raw_output = subprocess.run('openssl ec -in private_key.pem -text -noout', shell=True, capture_output=True).stdout.decode()\n",
    "print(raw_output)"
   ]
  },
  {
   "cell_type": "code",
   "execution_count": 5,
   "metadata": {},
   "outputs": [
    {
     "name": "stdout",
     "output_type": "stream",
     "text": [
      "priv: f644172bfacdfd5085352e4a9fb5cd5b8ea6e6f9bc2f0689a8f5ef458afc46d8\n",
      "pub: 04638aa05c1249f53f57a3537881d6c803c48ed89e4c23d5c5286b8886512b71d10fcb9ef4ede2c206bc9f10ff860bc6625580e525148aa3a6a029abba610b908c\n"
     ]
    }
   ],
   "source": [
    "private_key_hexstr = ''.join([x.replace(' ','').replace(':','') for x in raw_output.split('\\n')[2:5]])\n",
    "print('priv: ' + private_key_hexstr)\n",
    "public_key_hexstr = ''.join([x.replace(' ','').replace(':','') for x in raw_output.split('\\n')[6:11]])\n",
    "print('pub: ' + public_key_hexstr)"
   ]
  },
  {
   "cell_type": "markdown",
   "metadata": {},
   "source": [
    "## 2.2 Import raw private key (e.g. from ganache) and create locally its .pem file\n",
    "It should be in hex format without `0x` prefix"
   ]
  },
  {
   "cell_type": "code",
   "execution_count": 6,
   "metadata": {},
   "outputs": [
    {
     "data": {
      "text/plain": [
       "0"
      ]
     },
     "execution_count": 6,
     "metadata": {},
     "output_type": "execute_result"
    }
   ],
   "source": [
    "# this adress is 0 account from ganache\n",
    "private_key_hexstr = '44d01ff7ab5e778dac355876d5200b1f0d4f8d9bbd0f15723e7683f9c6ee8a78'\n",
    "\n",
    "public_key_hexstr = '04' + Web3.toHex(private_key_to_public_key(Web3.toBytes(hexstr=private_key_hexstr)))[2:]\n",
    "subprocess.run(f'echo 30740201010420 {private_key_hexstr} a00706052b8104000aa144034200 {public_key_hexstr} | xxd -r -p > raw_pem_key', shell=True).returncode\n",
    "subprocess.run('openssl ec -inform d < raw_pem_key > private_key.pem', shell=True).returncode"
   ]
  },
  {
   "cell_type": "markdown",
   "metadata": {},
   "source": [
    "## 3 Create ethereum transaction dict"
   ]
  },
  {
   "cell_type": "code",
   "execution_count": 7,
   "metadata": {},
   "outputs": [
    {
     "data": {
      "text/plain": [
       "0"
      ]
     },
     "execution_count": 7,
     "metadata": {},
     "output_type": "execute_result"
    }
   ],
   "source": [
    "w3.eth.defaultAccount = w3.eth.accounts[0]\n",
    "\n",
    "nonce = w3.eth.getTransactionCount(w3.eth.defaultAccount)\n",
    "transaction_dict = {\n",
    "    #'from': w3.eth.accounts[0],\n",
    "    'to': Web3.toChecksumAddress(w3.eth.accounts[1]),\n",
    "    'value': 1,\n",
    "    'gas': 200000,\n",
    "    'gasPrice': 0,\n",
    "    'nonce': nonce,\n",
    "    'chainId': CHAIN_ID\n",
    "}\n",
    "\n",
    "nonce"
   ]
  },
  {
   "cell_type": "markdown",
   "metadata": {},
   "source": [
    "## 4.1 Sign transaction dict via web3.py (optional)"
   ]
  },
  {
   "cell_type": "code",
   "execution_count": 8,
   "metadata": {},
   "outputs": [
    {
     "name": "stdout",
     "output_type": "stream",
     "text": [
      "signed tx hex:\n",
      "0xf860808083030d4094bab021f651b216ae46f3f73f75df3c5cb91b631b018026a0a40e1eb0574f19f71e2db1ec125ee09f5f5aa8c7275099313442f3cca7acfc3fa05be76e4b375ba2aeb7694cf908eca80a30fd43eb956f250669d2cbfb308f8edf\n",
      "\n",
      "signed tx hash hex:\n",
      "0x70c98fe74591d94b737849727469ef105b326cf8b24c6b213f7e06a963da9c4d\n",
      "\n",
      "tx ecdsa signature, (v, r, s):\n",
      "0x26\n",
      "0xa40e1eb0574f19f71e2db1ec125ee09f5f5aa8c7275099313442f3cca7acfc3f\n",
      "0x5be76e4b375ba2aeb7694cf908eca80a30fd43eb956f250669d2cbfb308f8edf\n"
     ]
    }
   ],
   "source": [
    "signed_tx = w3.eth.account.signTransaction(transaction_dict, private_key_hexstr)\n",
    "print('signed tx hex:\\n' + w3.toHex(signed_tx.rawTransaction) + '\\n')\n",
    "print('signed tx hash hex:\\n' + w3.toHex(signed_tx.hash) + '\\n')\n",
    "print('tx ecdsa signature, (v, r, s):')\n",
    "print(w3.toHex(signed_tx.v))\n",
    "print(w3.toHex(signed_tx.r))\n",
    "print(w3.toHex(signed_tx.s))"
   ]
  },
  {
   "cell_type": "markdown",
   "metadata": {},
   "source": [
    "## 4.2 Sign transaction dict via OpenSSL"
   ]
  },
  {
   "cell_type": "markdown",
   "metadata": {},
   "source": [
    "Prepare to serialize transaction dict (create abstract web3py transaction object), then RLP encode transaction and get keccak hash. This hash should be used in openssl sign.\n",
    "```bash\n",
    "echo <keccak_hash> | xxd -r -p > keccak_hash_file\n",
    "```"
   ]
  },
  {
   "cell_type": "code",
   "execution_count": 9,
   "metadata": {},
   "outputs": [
    {
     "data": {
      "text/plain": [
       "'0x6ef48740ab65db35ef38c0c07eb829da088ba7864f80e8d4d0cf0f5d084359d9'"
      ]
     },
     "execution_count": 9,
     "metadata": {},
     "output_type": "execute_result"
    }
   ],
   "source": [
    "unsigned_tx = serializable_unsigned_transaction_from_dict(transaction_dict)\n",
    "unsigned_tx_keccak_hash = unsigned_tx.hash()\n",
    "Web3.toHex(unsigned_tx_keccak_hash)"
   ]
  },
  {
   "cell_type": "code",
   "execution_count": 10,
   "metadata": {},
   "outputs": [
    {
     "data": {
      "text/plain": [
       "0"
      ]
     },
     "execution_count": 10,
     "metadata": {},
     "output_type": "execute_result"
    }
   ],
   "source": [
    "subprocess.run(f'echo {Web3.toHex(unsigned_tx_keccak_hash)[2:]} | xxd -r -p > unsigned_tx_keccak_hash', shell=True).returncode"
   ]
  },
  {
   "cell_type": "markdown",
   "metadata": {},
   "source": [
    "* **s** must be less than ```secp256k1n** / 2 + 1```\n",
    "* raw recovery ID (**v**) (0/1) role description: value 0 represents an even **y** value of elliptic curve signature, 1 is odd\n",
    "\n",
    "> it's not possible to get y from openssl, but this value can be only in [0,1]"
   ]
  },
  {
   "cell_type": "code",
   "execution_count": 11,
   "metadata": {},
   "outputs": [
    {
     "name": "stdout",
     "output_type": "stream",
     "text": [
      "66102CC77D9B35F991C02573F0E37A67FFD535F0B9164E399137072272701517\n",
      "4330B42365DF38A7CEBA458635B2AF8DEAE68F4CE582DA5CBBE12A844F37A365\n"
     ]
    }
   ],
   "source": [
    "secp256k1n = 115792089237316195423570985008687907852837564279074904382605163141518161494337\n",
    "s_num = secp256k1n\n",
    "while s_num > secp256k1n / 2:\n",
    "    subprocess.run('openssl pkeyutl -sign -inkey private_key.pem -in unsigned_tx_keccak_hash > signature', shell=True)\n",
    "    raw_output = subprocess.run('openssl asn1parse -inform DER -in signature', shell=True, capture_output=True).stdout.decode()\n",
    "    r_str, s_str = [x.split(':')[-1] for x in raw_output.split('\\n')[1:3]]\n",
    "    s_num = int(s_str, 16)\n",
    "print(r_str)\n",
    "print(s_str)"
   ]
  },
  {
   "cell_type": "markdown",
   "metadata": {},
   "source": [
    "Check if signature is valid:"
   ]
  },
  {
   "cell_type": "code",
   "execution_count": 12,
   "metadata": {},
   "outputs": [
    {
     "data": {
      "text/plain": [
       "True"
      ]
     },
     "execution_count": 12,
     "metadata": {},
     "output_type": "execute_result"
    }
   ],
   "source": [
    "ecdsa_raw_verify(\n",
    "    Web3.toBytes(unsigned_tx_keccak_hash),\n",
    "    [int(r_str, 16), int(s_str, 16)],\n",
    "    private_key_to_public_key(Web3.toBytes(hexstr=private_key_hexstr))\n",
    ")"
   ]
  },
  {
   "cell_type": "markdown",
   "metadata": {},
   "source": [
    "It must return your ethereum address:\n",
    "> if address does not match, try to change raw recovery ID (0,1)"
   ]
  },
  {
   "cell_type": "code",
   "execution_count": 14,
   "metadata": {},
   "outputs": [
    {
     "data": {
      "text/plain": [
       "'0x90c08087af274b77516df05952273008fea2c4b9'"
      ]
     },
     "execution_count": 14,
     "metadata": {},
     "output_type": "execute_result"
    }
   ],
   "source": [
    "v_raw = 1\n",
    "\n",
    "PublicKey(ecdsa_raw_recover(\n",
    "    Web3.toBytes(unsigned_tx_keccak_hash),\n",
    "    [v_raw, int(r_str, 16), int(s_str, 16)],\n",
    ")).to_address()"
   ]
  },
  {
   "cell_type": "markdown",
   "metadata": {},
   "source": [
    "RLP encode signed transaction, it's final step before you can send it"
   ]
  },
  {
   "cell_type": "code",
   "execution_count": 15,
   "metadata": {},
   "outputs": [
    {
     "data": {
      "text/plain": [
       "'0xf860808083030d4094bab021f651b216ae46f3f73f75df3c5cb91b631b018026a066102cc77d9b35f991c02573f0e37a67ffd535f0b9164e399137072272701517a04330b42365df38a7ceba458635b2af8deae68f4ce582da5cbbe12a844f37a365'"
      ]
     },
     "execution_count": 15,
     "metadata": {},
     "output_type": "execute_result"
    }
   ],
   "source": [
    "CHAIN_ID_OFFSET = 35\n",
    "v = v_raw + CHAIN_ID_OFFSET + 2 * CHAIN_ID # it's from yellow paper\n",
    "\n",
    "signed_tx = encode_transaction(\n",
    "    unsigned_tx,\n",
    "    vrs=(v,\n",
    "         int(r_str, 16),\n",
    "         int(s_str, 16)\n",
    "    )\n",
    ")\n",
    "Web3.toHex(signed_tx)"
   ]
  },
  {
   "cell_type": "markdown",
   "metadata": {},
   "source": [
    "## 5 Send signed transaction "
   ]
  },
  {
   "cell_type": "code",
   "execution_count": 16,
   "metadata": {
    "scrolled": false
   },
   "outputs": [
    {
     "data": {
      "text/plain": [
       "HexBytes('0x9c6977832f55a94711108179077ac0dc01800596c114fb763c063acee121b66b')"
      ]
     },
     "execution_count": 16,
     "metadata": {},
     "output_type": "execute_result"
    }
   ],
   "source": [
    "tx_hash = w3.eth.sendRawTransaction(signed_tx)\n",
    "tx_hash"
   ]
  },
  {
   "cell_type": "code",
   "execution_count": 17,
   "metadata": {},
   "outputs": [
    {
     "data": {
      "text/plain": [
       "AttributeDict({'transactionHash': HexBytes('0x9c6977832f55a94711108179077ac0dc01800596c114fb763c063acee121b66b'),\n",
       " 'transactionIndex': 0,\n",
       " 'blockHash': HexBytes('0x785bfb2fd0daa01cfa3c9732409addfac5d1826b1e96f26d19534b46567a141a'),\n",
       " 'blockNumber': 1,\n",
       " 'from': '0x90c08087af274b77516df05952273008fea2c4b9',\n",
       " 'to': '0xbab021f651b216ae46f3f73f75df3c5cb91b631b',\n",
       " 'gasUsed': 21000,\n",
       " 'cumulativeGasUsed': 21000,\n",
       " 'contractAddress': None,\n",
       " 'logs': [],\n",
       " 'status': 1,\n",
       " 'logsBloom': HexBytes('0x00000000000000000000000000000000000000000000000000000000000000000000000000000000000000000000000000000000000000000000000000000000000000000000000000000000000000000000000000000000000000000000000000000000000000000000000000000000000000000000000000000000000000000000000000000000000000000000000000000000000000000000000000000000000000000000000000000000000000000000000000000000000000000000000000000000000000000000000000000000000000000000000000000000000000000000000000000000000000000000000000000000000000000000000000000000'),\n",
       " 'v': '0x26',\n",
       " 'r': '0x66102cc77d9b35f991c02573f0e37a67ffd535f0b9164e399137072272701517',\n",
       " 's': '0x4330b42365df38a7ceba458635b2af8deae68f4ce582da5cbbe12a844f37a365'})"
      ]
     },
     "execution_count": 17,
     "metadata": {},
     "output_type": "execute_result"
    }
   ],
   "source": [
    "w3.eth.getTransactionReceipt(tx_hash)"
   ]
  },
  {
   "cell_type": "code",
   "execution_count": null,
   "metadata": {},
   "outputs": [],
   "source": []
  }
 ],
 "metadata": {
  "kernelspec": {
   "display_name": "Python 3",
   "language": "python",
   "name": "python3"
  },
  "language_info": {
   "codemirror_mode": {
    "name": "ipython",
    "version": 3
   },
   "file_extension": ".py",
   "mimetype": "text/x-python",
   "name": "python",
   "nbconvert_exporter": "python",
   "pygments_lexer": "ipython3",
   "version": "3.7.3"
  }
 },
 "nbformat": 4,
 "nbformat_minor": 2
}
